{
  "contractName": "NFT",
  "abi": [
    {
      "inputs": [
        {
          "internalType": "string",
          "name": "_name",
          "type": "string"
        },
        {
          "internalType": "string",
          "name": "_symbol",
          "type": "string"
        },
        {
          "internalType": "string",
          "name": "_initBaseURI",
          "type": "string"
        },
        {
          "internalType": "string",
          "name": "_initbaseUriSecondary",
          "type": "string"
        }
      ],
      "stateMutability": "nonpayable",
      "type": "constructor"
    },
    {
      "anonymous": false,
      "inputs": [
        {
          "indexed": true,
          "internalType": "address",
          "name": "owner",
          "type": "address"
        },
        {
          "indexed": true,
          "internalType": "address",
          "name": "approved",
          "type": "address"
        },
        {
          "indexed": true,
          "internalType": "uint256",
          "name": "tokenId",
          "type": "uint256"
        }
      ],
      "name": "Approval",
      "type": "event"
    },
    {
      "anonymous": false,
      "inputs": [
        {
          "indexed": true,
          "internalType": "address",
          "name": "owner",
          "type": "address"
        },
        {
          "indexed": true,
          "internalType": "address",
          "name": "operator",
          "type": "address"
        },
        {
          "indexed": false,
          "internalType": "bool",
          "name": "approved",
          "type": "bool"
        }
      ],
      "name": "ApprovalForAll",
      "type": "event"
    },
    {
      "anonymous": false,
      "inputs": [
        {
          "indexed": true,
          "internalType": "address",
          "name": "previousOwner",
          "type": "address"
        },
        {
          "indexed": true,
          "internalType": "address",
          "name": "newOwner",
          "type": "address"
        }
      ],
      "name": "OwnershipTransferred",
      "type": "event"
    },
    {
      "anonymous": false,
      "inputs": [
        {
          "indexed": true,
          "internalType": "address",
          "name": "from",
          "type": "address"
        },
        {
          "indexed": true,
          "internalType": "address",
          "name": "to",
          "type": "address"
        },
        {
          "indexed": true,
          "internalType": "uint256",
          "name": "tokenId",
          "type": "uint256"
        }
      ],
      "name": "Transfer",
      "type": "event"
    },
    {
      "inputs": [
        {
          "internalType": "address",
          "name": "",
          "type": "address"
        }
      ],
      "name": "addressMintedBalance",
      "outputs": [
        {
          "internalType": "uint256",
          "name": "",
          "type": "uint256"
        }
      ],
      "stateMutability": "view",
      "type": "function",
      "constant": true
    },
    {
      "inputs": [
        {
          "internalType": "address",
          "name": "to",
          "type": "address"
        },
        {
          "internalType": "uint256",
          "name": "tokenId",
          "type": "uint256"
        }
      ],
      "name": "approve",
      "outputs": [],
      "stateMutability": "nonpayable",
      "type": "function"
    },
    {
      "inputs": [
        {
          "internalType": "address",
          "name": "owner",
          "type": "address"
        }
      ],
      "name": "balanceOf",
      "outputs": [
        {
          "internalType": "uint256",
          "name": "",
          "type": "uint256"
        }
      ],
      "stateMutability": "view",
      "type": "function",
      "constant": true
    },
    {
      "inputs": [],
      "name": "baseExtension",
      "outputs": [
        {
          "internalType": "string",
          "name": "",
          "type": "string"
        }
      ],
      "stateMutability": "view",
      "type": "function",
      "constant": true
    },
    {
      "inputs": [],
      "name": "baseURI",
      "outputs": [
        {
          "internalType": "string",
          "name": "",
          "type": "string"
        }
      ],
      "stateMutability": "view",
      "type": "function",
      "constant": true
    },
    {
      "inputs": [],
      "name": "baseUriSecondary",
      "outputs": [
        {
          "internalType": "string",
          "name": "",
          "type": "string"
        }
      ],
      "stateMutability": "view",
      "type": "function",
      "constant": true
    },
    {
      "inputs": [],
      "name": "cost",
      "outputs": [
        {
          "internalType": "uint256",
          "name": "",
          "type": "uint256"
        }
      ],
      "stateMutability": "view",
      "type": "function",
      "constant": true
    },
    {
      "inputs": [
        {
          "internalType": "uint256",
          "name": "tokenId",
          "type": "uint256"
        }
      ],
      "name": "getApproved",
      "outputs": [
        {
          "internalType": "address",
          "name": "",
          "type": "address"
        }
      ],
      "stateMutability": "view",
      "type": "function",
      "constant": true
    },
    {
      "inputs": [
        {
          "internalType": "address",
          "name": "owner",
          "type": "address"
        },
        {
          "internalType": "address",
          "name": "operator",
          "type": "address"
        }
      ],
      "name": "isApprovedForAll",
      "outputs": [
        {
          "internalType": "bool",
          "name": "",
          "type": "bool"
        }
      ],
      "stateMutability": "view",
      "type": "function",
      "constant": true
    },
    {
      "inputs": [],
      "name": "maxMintAmount",
      "outputs": [
        {
          "internalType": "uint256",
          "name": "",
          "type": "uint256"
        }
      ],
      "stateMutability": "view",
      "type": "function",
      "constant": true
    },
    {
      "inputs": [],
      "name": "maxSupply",
      "outputs": [
        {
          "internalType": "uint256",
          "name": "",
          "type": "uint256"
        }
      ],
      "stateMutability": "view",
      "type": "function",
      "constant": true
    },
    {
      "inputs": [],
      "name": "name",
      "outputs": [
        {
          "internalType": "string",
          "name": "",
          "type": "string"
        }
      ],
      "stateMutability": "view",
      "type": "function",
      "constant": true
    },
    {
      "inputs": [],
      "name": "nftPerAddressLimit",
      "outputs": [
        {
          "internalType": "uint256",
          "name": "",
          "type": "uint256"
        }
      ],
      "stateMutability": "view",
      "type": "function",
      "constant": true
    },
    {
      "inputs": [],
      "name": "onlyWhitelisted",
      "outputs": [
        {
          "internalType": "bool",
          "name": "",
          "type": "bool"
        }
      ],
      "stateMutability": "view",
      "type": "function",
      "constant": true
    },
    {
      "inputs": [],
      "name": "owner",
      "outputs": [
        {
          "internalType": "address",
          "name": "",
          "type": "address"
        }
      ],
      "stateMutability": "view",
      "type": "function",
      "constant": true
    },
    {
      "inputs": [
        {
          "internalType": "uint256",
          "name": "tokenId",
          "type": "uint256"
        }
      ],
      "name": "ownerOf",
      "outputs": [
        {
          "internalType": "address",
          "name": "",
          "type": "address"
        }
      ],
      "stateMutability": "view",
      "type": "function",
      "constant": true
    },
    {
      "inputs": [],
      "name": "paused",
      "outputs": [
        {
          "internalType": "bool",
          "name": "",
          "type": "bool"
        }
      ],
      "stateMutability": "view",
      "type": "function",
      "constant": true
    },
    {
      "inputs": [],
      "name": "renounceOwnership",
      "outputs": [],
      "stateMutability": "nonpayable",
      "type": "function"
    },
    {
      "inputs": [
        {
          "internalType": "address",
          "name": "from",
          "type": "address"
        },
        {
          "internalType": "address",
          "name": "to",
          "type": "address"
        },
        {
          "internalType": "uint256",
          "name": "tokenId",
          "type": "uint256"
        }
      ],
      "name": "safeTransferFrom",
      "outputs": [],
      "stateMutability": "nonpayable",
      "type": "function"
    },
    {
      "inputs": [
        {
          "internalType": "address",
          "name": "from",
          "type": "address"
        },
        {
          "internalType": "address",
          "name": "to",
          "type": "address"
        },
        {
          "internalType": "uint256",
          "name": "tokenId",
          "type": "uint256"
        },
        {
          "internalType": "bytes",
          "name": "_data",
          "type": "bytes"
        }
      ],
      "name": "safeTransferFrom",
      "outputs": [],
      "stateMutability": "nonpayable",
      "type": "function"
    },
    {
      "inputs": [
        {
          "internalType": "address",
          "name": "operator",
          "type": "address"
        },
        {
          "internalType": "bool",
          "name": "approved",
          "type": "bool"
        }
      ],
      "name": "setApprovalForAll",
      "outputs": [],
      "stateMutability": "nonpayable",
      "type": "function"
    },
    {
      "inputs": [
        {
          "internalType": "bytes4",
          "name": "interfaceId",
          "type": "bytes4"
        }
      ],
      "name": "supportsInterface",
      "outputs": [
        {
          "internalType": "bool",
          "name": "",
          "type": "bool"
        }
      ],
      "stateMutability": "view",
      "type": "function",
      "constant": true
    },
    {
      "inputs": [],
      "name": "symbol",
      "outputs": [
        {
          "internalType": "string",
          "name": "",
          "type": "string"
        }
      ],
      "stateMutability": "view",
      "type": "function",
      "constant": true
    },
    {
      "inputs": [
        {
          "internalType": "uint256",
          "name": "index",
          "type": "uint256"
        }
      ],
      "name": "tokenByIndex",
      "outputs": [
        {
          "internalType": "uint256",
          "name": "",
          "type": "uint256"
        }
      ],
      "stateMutability": "view",
      "type": "function",
      "constant": true
    },
    {
      "inputs": [
        {
          "internalType": "address",
          "name": "owner",
          "type": "address"
        },
        {
          "internalType": "uint256",
          "name": "index",
          "type": "uint256"
        }
      ],
      "name": "tokenOfOwnerByIndex",
      "outputs": [
        {
          "internalType": "uint256",
          "name": "",
          "type": "uint256"
        }
      ],
      "stateMutability": "view",
      "type": "function",
      "constant": true
    },
    {
      "inputs": [],
      "name": "totalSupply",
      "outputs": [
        {
          "internalType": "uint256",
          "name": "",
          "type": "uint256"
        }
      ],
      "stateMutability": "view",
      "type": "function",
      "constant": true
    },
    {
      "inputs": [
        {
          "internalType": "address",
          "name": "from",
          "type": "address"
        },
        {
          "internalType": "address",
          "name": "to",
          "type": "address"
        },
        {
          "internalType": "uint256",
          "name": "tokenId",
          "type": "uint256"
        }
      ],
      "name": "transferFrom",
      "outputs": [],
      "stateMutability": "nonpayable",
      "type": "function"
    },
    {
      "inputs": [
        {
          "internalType": "address",
          "name": "newOwner",
          "type": "address"
        }
      ],
      "name": "transferOwnership",
      "outputs": [],
      "stateMutability": "nonpayable",
      "type": "function"
    },
    {
      "inputs": [
        {
          "internalType": "uint256",
          "name": "",
          "type": "uint256"
        }
      ],
      "name": "whitelistedAddresses",
      "outputs": [
        {
          "internalType": "address",
          "name": "",
          "type": "address"
        }
      ],
      "stateMutability": "view",
      "type": "function",
      "constant": true
    },
    {
      "inputs": [
        {
          "internalType": "uint256",
          "name": "_mintAmount",
          "type": "uint256"
        }
      ],
      "name": "mint",
      "outputs": [],
      "stateMutability": "payable",
      "type": "function",
      "payable": true
    },
    {
      "inputs": [
        {
          "internalType": "address",
          "name": "_user",
          "type": "address"
        }
      ],
      "name": "isWhitelisted",
      "outputs": [
        {
          "internalType": "bool",
          "name": "",
          "type": "bool"
        }
      ],
      "stateMutability": "view",
      "type": "function",
      "constant": true
    },
    {
      "inputs": [
        {
          "internalType": "address",
          "name": "_owner",
          "type": "address"
        }
      ],
      "name": "walletOfOwner",
      "outputs": [
        {
          "internalType": "uint256[]",
          "name": "",
          "type": "uint256[]"
        }
      ],
      "stateMutability": "view",
      "type": "function",
      "constant": true
    },
    {
      "inputs": [
        {
          "internalType": "uint256",
          "name": "tokenId",
          "type": "uint256"
        }
      ],
      "name": "tokenURI",
      "outputs": [
        {
          "internalType": "string",
          "name": "",
          "type": "string"
        }
      ],
      "stateMutability": "view",
      "type": "function",
      "constant": true
    },
    {
      "inputs": [
        {
          "internalType": "uint256",
          "name": "tokenId",
          "type": "uint256"
        }
      ],
      "name": "changeBaseURI",
      "outputs": [],
      "stateMutability": "nonpayable",
      "type": "function"
    },
    {
      "inputs": [
        {
          "internalType": "uint256",
          "name": "_limit",
          "type": "uint256"
        }
      ],
      "name": "setNftPerAddressLimit",
      "outputs": [],
      "stateMutability": "nonpayable",
      "type": "function"
    },
    {
      "inputs": [
        {
          "internalType": "uint256",
          "name": "_newCost",
          "type": "uint256"
        }
      ],
      "name": "setCost",
      "outputs": [],
      "stateMutability": "nonpayable",
      "type": "function"
    },
    {
      "inputs": [
        {
          "internalType": "uint256",
          "name": "_newmaxMintAmount",
          "type": "uint256"
        }
      ],
      "name": "setmaxMintAmount",
      "outputs": [],
      "stateMutability": "nonpayable",
      "type": "function"
    },
    {
      "inputs": [
        {
          "internalType": "string",
          "name": "_newBaseURI",
          "type": "string"
        }
      ],
      "name": "setBaseURI",
      "outputs": [],
      "stateMutability": "nonpayable",
      "type": "function"
    },
    {
      "inputs": [
        {
          "internalType": "string",
          "name": "_newbaseUriSecondary",
          "type": "string"
        }
      ],
      "name": "setBaseUriSecondary",
      "outputs": [],
      "stateMutability": "nonpayable",
      "type": "function"
    },
    {
      "inputs": [
        {
          "internalType": "string",
          "name": "_newBaseExtension",
          "type": "string"
        }
      ],
      "name": "setBaseExtension",
      "outputs": [],
      "stateMutability": "nonpayable",
      "type": "function"
    },
    {
      "inputs": [
        {
          "internalType": "bool",
          "name": "_state",
          "type": "bool"
        }
      ],
      "name": "pause",
      "outputs": [],
      "stateMutability": "nonpayable",
      "type": "function"
    },
    {
      "inputs": [
        {
          "internalType": "bool",
          "name": "_state",
          "type": "bool"
        }
      ],
      "name": "setOnlyWhitelisted",
      "outputs": [],
      "stateMutability": "nonpayable",
      "type": "function"
    },
    {
      "inputs": [
        {
          "internalType": "address[]",
          "name": "_users",
          "type": "address[]"
        }
      ],
      "name": "whitelistUsers",
      "outputs": [],
      "stateMutability": "nonpayable",
      "type": "function"
    },
    {
      "inputs": [],
      "name": "withdraw",
      "outputs": [],
      "stateMutability": "payable",
      "type": "function",
      "payable": true
    }
  ],
  "bytecode": "0x60c06040526005608081905264173539b7b760d91b60a09081526200002891600d919062000214565b50670de0b6b3a7640000600e556103e8600f55601460105560036011556012805461ffff191690553480156200005d57600080fd5b50604051620031fa380380620031fa833981016040819052620000809162000365565b8351849084906200009990600090602085019062000214565b508051620000af90600190602084019062000214565b505050620000cc620000c6620000ec60201b60201c565b620000f0565b620000d78262000142565b620000e281620001aa565b50505050620004a1565b3390565b600a80546001600160a01b038381166001600160a01b0319831681179093556040519116919082907f8be0079c531659141344cd1fd0a4f28419497f9722a3daafe3b4186f6b6457e090600090a35050565b6200014c620000ec565b6001600160a01b03166200015f62000205565b6001600160a01b031614620001915760405162461bcd60e51b8152600401620001889062000419565b60405180910390fd5b8051620001a690600b90602084019062000214565b5050565b620001b4620000ec565b6001600160a01b0316620001c762000205565b6001600160a01b031614620001f05760405162461bcd60e51b8152600401620001889062000419565b8051620001a690600c90602084019062000214565b600a546001600160a01b031690565b82805462000222906200044e565b90600052602060002090601f01602090048101928262000246576000855562000291565b82601f106200026157805160ff191683800117855562000291565b8280016001018555821562000291579182015b828111156200029157825182559160200191906001019062000274565b506200029f929150620002a3565b5090565b5b808211156200029f5760008155600101620002a4565b600082601f830112620002cb578081fd5b81516001600160401b0380821115620002e857620002e86200048b565b6040516020601f8401601f19168201810183811183821017156200031057620003106200048b565b604052838252858401810187101562000327578485fd5b8492505b838310156200034a57858301810151828401820152918201916200032b565b838311156200035b57848185840101525b5095945050505050565b600080600080608085870312156200037b578384fd5b84516001600160401b038082111562000392578586fd5b620003a088838901620002ba565b95506020870151915080821115620003b6578485fd5b620003c488838901620002ba565b94506040870151915080821115620003da578384fd5b620003e888838901620002ba565b93506060870151915080821115620003fe578283fd5b506200040d87828801620002ba565b91505092959194509250565b6020808252818101527f4f776e61626c653a2063616c6c6572206973206e6f7420746865206f776e6572604082015260600190565b6002810460018216806200046357607f821691505b602082108114156200048557634e487b7160e01b600052602260045260246000fd5b50919050565b634e487b7160e01b600052604160045260246000fd5b612d4980620004b16000396000f3fe6080604052600436106102675760003560e01c80636352211e11610144578063b88d4fde116100b6578063d0eb26b01161007a578063d0eb26b0146106c4578063d5abeb01146106e4578063da3ef23f146106f9578063e985e9c514610719578063edec5f2714610739578063f2fde38b1461075957610267565b8063b88d4fde1461063a578063ba4e5c491461065a578063ba7d2c761461067a578063c66828621461068f578063c87b56dd146106a457610267565b80637f00c7a6116101085780637f00c7a6146105a85780638da5cb5b146105c857806395d89b41146105dd5780639c70b512146105f2578063a0712d6814610607578063a22cb4651461061a57610267565b80636352211e1461051e5780636c0360eb1461053e57806370a0823114610553578063715018a61461057357806373314f4d1461058857610267565b80633af32abf116101dd578063438b6300116101a1578063438b63001461046757806344a0d68a146104945780634a336ee7146104b45780634f6ccce7146104c957806355f804b3146104e95780635c975abb1461050957610267565b80633af32abf146103df5780633c952764146103ff5780633ccfd60b1461041f5780634021e0321461042757806342842e0e1461044757610267565b806313faede61161022f57806313faede61461033357806318160ddd1461035557806318cae2691461036a578063239c70ae1461038a57806323b872dd1461039f5780632f745c59146103bf57610267565b806301ffc9a71461026c57806302329a29146102a257806306fdde03146102c4578063081812fc146102e6578063095ea7b314610313575b600080fd5b34801561027857600080fd5b5061028c6102873660046122db565b610779565b60405161029991906124f7565b60405180910390f35b3480156102ae57600080fd5b506102c26102bd3660046122c1565b6107a6565b005b3480156102d057600080fd5b506102d9610801565b6040516102999190612502565b3480156102f257600080fd5b50610306610301366004612359565b610893565b6040516102999190612462565b34801561031f57600080fd5b506102c261032e366004612229565b6108d6565b34801561033f57600080fd5b5061034861096e565b6040516102999190612bae565b34801561036157600080fd5b50610348610974565b34801561037657600080fd5b506103486103853660046120f9565b61097a565b34801561039657600080fd5b5061034861098c565b3480156103ab57600080fd5b506102c26103ba36600461214c565b610992565b3480156103cb57600080fd5b506103486103da366004612229565b6109ca565b3480156103eb57600080fd5b5061028c6103fa3660046120f9565b610a1c565b34801561040b57600080fd5b506102c261041a3660046122c1565b610a95565b6102c2610aee565b34801561043357600080fd5b506102c2610442366004612313565b610ba0565b34801561045357600080fd5b506102c261046236600461214c565b610bf6565b34801561047357600080fd5b506104876104823660046120f9565b610c11565b60405161029991906124b3565b3480156104a057600080fd5b506102c26104af366004612359565b610ccf565b3480156104c057600080fd5b506102d9610d13565b3480156104d557600080fd5b506103486104e4366004612359565b610da1565b3480156104f557600080fd5b506102c2610504366004612313565b610dfc565b34801561051557600080fd5b5061028c610e4e565b34801561052a57600080fd5b50610306610539366004612359565b610e57565b34801561054a57600080fd5b506102d9610e8c565b34801561055f57600080fd5b5061034861056e3660046120f9565b610e99565b34801561057f57600080fd5b506102c2610edd565b34801561059457600080fd5b506102c26105a3366004612359565b610f28565b3480156105b457600080fd5b506102c26105c3366004612359565b610fdf565b3480156105d457600080fd5b50610306611023565b3480156105e957600080fd5b506102d9611032565b3480156105fe57600080fd5b5061028c611041565b6102c2610615366004612359565b61104f565b34801561062657600080fd5b506102c2610635366004612200565b611290565b34801561064657600080fd5b506102c2610655366004612187565b61135e565b34801561066657600080fd5b50610306610675366004612359565b61139d565b34801561068657600080fd5b506103486113c7565b34801561069b57600080fd5b506102d96113cd565b3480156106b057600080fd5b506102d96106bf366004612359565b6113da565b3480156106d057600080fd5b506102c26106df366004612359565b61149d565b3480156106f057600080fd5b506103486114e1565b34801561070557600080fd5b506102c2610714366004612313565b6114e7565b34801561072557600080fd5b5061028c61073436600461211a565b611539565b34801561074557600080fd5b506102c2610754366004612252565b611567565b34801561076557600080fd5b506102c26107743660046120f9565b6115be565b60006001600160e01b0319821663780e9d6360e01b148061079e575061079e8261162c565b90505b919050565b6107ae61166c565b6001600160a01b03166107bf611023565b6001600160a01b0316146107ee5760405162461bcd60e51b81526004016107e590612939565b60405180910390fd5b6012805460ff1916911515919091179055565b60606000805461081090612c51565b80601f016020809104026020016040519081016040528092919081815260200182805461083c90612c51565b80156108895780601f1061085e57610100808354040283529160200191610889565b820191906000526020600020905b81548152906001019060200180831161086c57829003601f168201915b5050505050905090565b600061089e82611670565b6108ba5760405162461bcd60e51b81526004016107e5906128ed565b506000908152600460205260409020546001600160a01b031690565b60006108e182610e57565b9050806001600160a01b0316836001600160a01b031614156109155760405162461bcd60e51b81526004016107e590612a36565b806001600160a01b031661092761166c565b6001600160a01b0316148061094357506109438161073461166c565b61095f5760405162461bcd60e51b81526004016107e59061272d565b610969838361168d565b505050565b600e5481565b60085490565b60146020526000908152604090205481565b60105481565b6109a361099d61166c565b826116fb565b6109bf5760405162461bcd60e51b81526004016107e590612aa3565b610969838383611780565b60006109d583610e99565b82106109f35760405162461bcd60e51b81526004016107e590612515565b506001600160a01b03919091166000908152600660209081526040808320938352929052205490565b6000805b601354811015610a8c57826001600160a01b031660138281548110610a5557634e487b7160e01b600052603260045260246000fd5b6000918252602090912001546001600160a01b03161415610a7a5760019150506107a1565b80610a8481612c8c565b915050610a20565b50600092915050565b610a9d61166c565b6001600160a01b0316610aae611023565b6001600160a01b031614610ad45760405162461bcd60e51b81526004016107e590612939565b601280549115156101000261ff0019909216919091179055565b610af661166c565b6001600160a01b0316610b07611023565b6001600160a01b031614610b2d5760405162461bcd60e51b81526004016107e590612939565b6000610b37611023565b6001600160a01b031647604051610b4d9061245f565b60006040518083038185875af1925050503d8060008114610b8a576040519150601f19603f3d011682016040523d82523d6000602084013e610b8f565b606091505b5050905080610b9d57600080fd5b50565b610ba861166c565b6001600160a01b0316610bb9611023565b6001600160a01b031614610bdf5760405162461bcd60e51b81526004016107e590612939565b8051610bf290600c906020840190611f58565b5050565b6109698383836040518060200160405280600081525061135e565b60606000610c1e83610e99565b905060008167ffffffffffffffff811115610c4957634e487b7160e01b600052604160045260246000fd5b604051908082528060200260200182016040528015610c72578160200160208202803683370190505b50905060005b82811015610cc757610c8a85826109ca565b828281518110610caa57634e487b7160e01b600052603260045260246000fd5b602090810291909101015280610cbf81612c8c565b915050610c78565b509392505050565b610cd761166c565b6001600160a01b0316610ce8611023565b6001600160a01b031614610d0e5760405162461bcd60e51b81526004016107e590612939565b600e55565b600c8054610d2090612c51565b80601f0160208091040260200160405190810160405280929190818152602001828054610d4c90612c51565b8015610d995780601f10610d6e57610100808354040283529160200191610d99565b820191906000526020600020905b815481529060010190602001808311610d7c57829003601f168201915b505050505081565b6000610dab610974565b8210610dc95760405162461bcd60e51b81526004016107e590612af4565b60088281548110610dea57634e487b7160e01b600052603260045260246000fd5b90600052602060002001549050919050565b610e0461166c565b6001600160a01b0316610e15611023565b6001600160a01b031614610e3b5760405162461bcd60e51b81526004016107e590612939565b8051610bf290600b906020840190611f58565b60125460ff1681565b6000818152600260205260408120546001600160a01b03168061079e5760405162461bcd60e51b81526004016107e5906127fb565b600b8054610d2090612c51565b60006001600160a01b038216610ec15760405162461bcd60e51b81526004016107e5906127b1565b506001600160a01b031660009081526003602052604090205490565b610ee561166c565b6001600160a01b0316610ef6611023565b6001600160a01b031614610f1c5760405162461bcd60e51b81526004016107e590612939565b610f2660006118ad565b565b610f3181610e57565b6001600160a01b0316336001600160a01b031614610f615760405162461bcd60e51b81526004016107e59061278a565b610f6a81611670565b610f865760405162461bcd60e51b81526004016107e5906129e7565b60008181526015602052604090206002015460ff168015610fbf576000828152601560205260409020600201805460ff19169055610bf2565b6000828152601560205260409020600201805460ff191660011790555050565b610fe761166c565b6001600160a01b0316610ff8611023565b6001600160a01b03161461101e5760405162461bcd60e51b81526004016107e590612939565b601055565b600a546001600160a01b031690565b60606001805461081090612c51565b601254610100900460ff1681565b60125460ff16156110725760405162461bcd60e51b81526004016107e59061296e565b600061107c610974565b90506000821161109e5760405162461bcd60e51b81526004016107e590612b77565b6010548211156110c05760405162461bcd60e51b81526004016107e590612874565b600f546110cd8383612bc3565b11156110eb5760405162461bcd60e51b81526004016107e590612844565b6110f3611023565b6001600160a01b0316336001600160a01b0316146111b05760125460ff610100909104161515600114156111835761112a33610a1c565b6111465760405162461bcd60e51b81526004016107e590612b40565b336000908152601460205260409020546011546111638483612bc3565b11156111815760405162461bcd60e51b81526004016107e59061262f565b505b81600e546111919190612bef565b3410156111b05760405162461bcd60e51b81526004016107e590612a77565b60015b828111611200573360009081526014602052604081208054916111d583612c8c565b909155506111ee9050336111e98385612bc3565b6118ff565b806111f881612c8c565b9150506111b3565b506040518060600160405280336001600160a01b03168152602001611223610974565b8152602001600015158152506015600061123b610974565b81526020808201929092526040908101600020835181546001600160a01b0319166001600160a01b0390911617815591830151600183015591909101516002909101805460ff19169115159190911790555050565b61129861166c565b6001600160a01b0316826001600160a01b031614156112c95760405162461bcd60e51b81526004016107e5906126aa565b80600560006112d661166c565b6001600160a01b03908116825260208083019390935260409182016000908120918716808252919093529120805460ff19169215159290921790915561131a61166c565b6001600160a01b03167f17307eab39ab6107e8899845ad3d59bd9653f200f220920489ca2b5937696c318360405161135291906124f7565b60405180910390a35050565b61136f61136961166c565b836116fb565b61138b5760405162461bcd60e51b81526004016107e590612aa3565b61139784848484611919565b50505050565b601381815481106113ad57600080fd5b6000918252602090912001546001600160a01b0316905081565b60115481565b600d8054610d2090612c51565b60606113e582611670565b6114015760405162461bcd60e51b81526004016107e5906129e7565b6000828152601560205260409020600281015460019091015460ff90911690808414801561142c5750815b1561149357600061143b61194c565b9050600081511161145b5760405180602001604052806000815250611489565b806114658661195b565b600d6040516020016114799392919061239d565b6040516020818303038152906040525b93505050506107a1565b600061143b611a76565b6114a561166c565b6001600160a01b03166114b6611023565b6001600160a01b0316146114dc5760405162461bcd60e51b81526004016107e590612939565b601155565b600f5481565b6114ef61166c565b6001600160a01b0316611500611023565b6001600160a01b0316146115265760405162461bcd60e51b81526004016107e590612939565b8051610bf290600d906020840190611f58565b6001600160a01b03918216600090815260056020908152604080832093909416825291909152205460ff1690565b61156f61166c565b6001600160a01b0316611580611023565b6001600160a01b0316146115a65760405162461bcd60e51b81526004016107e590612939565b6115b260136000611fdc565b61096960138383611ffa565b6115c661166c565b6001600160a01b03166115d7611023565b6001600160a01b0316146115fd5760405162461bcd60e51b81526004016107e590612939565b6001600160a01b0381166116235760405162461bcd60e51b81526004016107e5906125b2565b610b9d816118ad565b60006001600160e01b031982166380ac58cd60e01b148061165d57506001600160e01b03198216635b5e139f60e01b145b8061079e575061079e82611a85565b3390565b6000908152600260205260409020546001600160a01b0316151590565b600081815260046020526040902080546001600160a01b0319166001600160a01b03841690811790915581906116c282610e57565b6001600160a01b03167f8c5be1e5ebec7d5bd14f71427d1e84f3dd0314c0f7b2291e5b200ac8c7c3b92560405160405180910390a45050565b600061170682611670565b6117225760405162461bcd60e51b81526004016107e5906126e1565b600061172d83610e57565b9050806001600160a01b0316846001600160a01b031614806117685750836001600160a01b031661175d84610893565b6001600160a01b0316145b8061177857506117788185611539565b949350505050565b826001600160a01b031661179382610e57565b6001600160a01b0316146117b95760405162461bcd60e51b81526004016107e59061299e565b6001600160a01b0382166117df5760405162461bcd60e51b81526004016107e590612666565b6117ea838383611a9e565b6117f560008261168d565b6001600160a01b038316600090815260036020526040812080546001929061181e908490612c0e565b90915550506001600160a01b038216600090815260036020526040812080546001929061184c908490612bc3565b909155505060008181526002602052604080822080546001600160a01b0319166001600160a01b0386811691821790925591518493918716917fddf252ad1be2c89b69c2b068fc378daa952ba7f163c4a11628f55a4df523b3ef91a4505050565b600a80546001600160a01b038381166001600160a01b0319831681179093556040519116919082907f8be0079c531659141344cd1fd0a4f28419497f9722a3daafe3b4186f6b6457e090600090a35050565b610bf2828260405180602001604052806000815250611b27565b611924848484611780565b61193084848484611b5a565b6113975760405162461bcd60e51b81526004016107e590612560565b6060600c805461081090612c51565b60608161198057506040805180820190915260018152600360fc1b60208201526107a1565b8160005b81156119aa578061199481612c8c565b91506119a39050600a83612bdb565b9150611984565b60008167ffffffffffffffff8111156119d357634e487b7160e01b600052604160045260246000fd5b6040519080825280601f01601f1916602001820160405280156119fd576020820181803683370190505b5090505b841561177857611a12600183612c0e565b9150611a1f600a86612ca7565b611a2a906030612bc3565b60f81b818381518110611a4d57634e487b7160e01b600052603260045260246000fd5b60200101906001600160f81b031916908160001a905350611a6f600a86612bdb565b9450611a01565b6060600b805461081090612c51565b6001600160e01b031981166301ffc9a760e01b14919050565b611aa9838383610969565b6001600160a01b038316611ac557611ac081611c75565b611ae8565b816001600160a01b0316836001600160a01b031614611ae857611ae88382611cb9565b6001600160a01b038216611b0457611aff81611d56565b610969565b826001600160a01b0316826001600160a01b031614610969576109698282611e2f565b611b318383611e73565b611b3e6000848484611b5a565b6109695760405162461bcd60e51b81526004016107e590612560565b6000611b6e846001600160a01b0316611f52565b15611c6a57836001600160a01b031663150b7a02611b8a61166c565b8786866040518563ffffffff1660e01b8152600401611bac9493929190612476565b602060405180830381600087803b158015611bc657600080fd5b505af1925050508015611bf6575060408051601f3d908101601f19168201909252611bf3918101906122f7565b60015b611c50573d808015611c24576040519150601f19603f3d011682016040523d82523d6000602084013e611c29565b606091505b508051611c485760405162461bcd60e51b81526004016107e590612560565b805181602001fd5b6001600160e01b031916630a85bd0160e11b149050611778565b506001949350505050565b600880546000838152600960205260408120829055600182018355919091527ff3f7a9fe364faab93b216da50a3214154f22a0a2b415b23a84c8169e8b636ee30155565b60006001611cc684610e99565b611cd09190612c0e565b600083815260076020526040902054909150808214611d23576001600160a01b03841660009081526006602090815260408083208584528252808320548484528184208190558352600790915290208190555b5060009182526007602090815260408084208490556001600160a01b039094168352600681528383209183525290812055565b600854600090611d6890600190612c0e565b60008381526009602052604081205460088054939450909284908110611d9e57634e487b7160e01b600052603260045260246000fd5b906000526020600020015490508060088381548110611dcd57634e487b7160e01b600052603260045260246000fd5b6000918252602080832090910192909255828152600990915260408082208490558582528120556008805480611e1357634e487b7160e01b600052603160045260246000fd5b6001900381819060005260206000200160009055905550505050565b6000611e3a83610e99565b6001600160a01b039093166000908152600660209081526040808320868452825280832085905593825260079052919091209190915550565b6001600160a01b038216611e995760405162461bcd60e51b81526004016107e5906128b8565b611ea281611670565b15611ebf5760405162461bcd60e51b81526004016107e5906125f8565b611ecb60008383611a9e565b6001600160a01b0382166000908152600360205260408120805460019290611ef4908490612bc3565b909155505060008181526002602052604080822080546001600160a01b0319166001600160a01b03861690811790915590518392907fddf252ad1be2c89b69c2b068fc378daa952ba7f163c4a11628f55a4df523b3ef908290a45050565b3b151590565b828054611f6490612c51565b90600052602060002090601f016020900481019282611f865760008555611fcc565b82601f10611f9f57805160ff1916838001178555611fcc565b82800160010185558215611fcc579182015b82811115611fcc578251825591602001919060010190611fb1565b50611fd892915061204d565b5090565b5080546000825590600052602060002090810190610b9d919061204d565b828054828255906000526020600020908101928215611fcc579160200282015b82811115611fcc5781546001600160a01b0319166001600160a01b0384351617825560209092019160019091019061201a565b5b80821115611fd8576000815560010161204e565b600067ffffffffffffffff8084111561207d5761207d612ce7565b604051601f8501601f1916810160200182811182821017156120a1576120a1612ce7565b6040528481529150818385018610156120b957600080fd5b8484602083013760006020868301015250509392505050565b80356001600160a01b03811681146107a157600080fd5b803580151581146107a157600080fd5b60006020828403121561210a578081fd5b612113826120d2565b9392505050565b6000806040838503121561212c578081fd5b612135836120d2565b9150612143602084016120d2565b90509250929050565b600080600060608486031215612160578081fd5b612169846120d2565b9250612177602085016120d2565b9150604084013590509250925092565b6000806000806080858703121561219c578081fd5b6121a5856120d2565b93506121b3602086016120d2565b925060408501359150606085013567ffffffffffffffff8111156121d5578182fd5b8501601f810187136121e5578182fd5b6121f487823560208401612062565b91505092959194509250565b60008060408385031215612212578182fd5b61221b836120d2565b9150612143602084016120e9565b6000806040838503121561223b578182fd5b612244836120d2565b946020939093013593505050565b60008060208385031215612264578182fd5b823567ffffffffffffffff8082111561227b578384fd5b818501915085601f83011261228e578384fd5b81358181111561229c578485fd5b86602080830285010111156122af578485fd5b60209290920196919550909350505050565b6000602082840312156122d2578081fd5b612113826120e9565b6000602082840312156122ec578081fd5b813561211381612cfd565b600060208284031215612308578081fd5b815161211381612cfd565b600060208284031215612324578081fd5b813567ffffffffffffffff81111561233a578182fd5b8201601f8101841361234a578182fd5b61177884823560208401612062565b60006020828403121561236a578081fd5b5035919050565b60008151808452612389816020860160208601612c25565b601f01601f19169290920160200192915050565b6000845160206123b08285838a01612c25565b8551918401916123c38184848a01612c25565b85549201918390600281046001808316806123df57607f831692505b8583108114156123fd57634e487b7160e01b88526022600452602488fd5b80801561241157600181146124225761244e565b60ff1985168852838801955061244e565b61242b8b612bb7565b895b858110156124465781548a82015290840190880161242d565b505083880195505b50939b9a5050505050505050505050565b90565b6001600160a01b0391909116815260200190565b6001600160a01b03858116825284166020820152604081018390526080606082018190526000906124a990830184612371565b9695505050505050565b6020808252825182820181905260009190848201906040850190845b818110156124eb578351835292840192918401916001016124cf565b50909695505050505050565b901515815260200190565b6000602082526121136020830184612371565b6020808252602b908201527f455243373231456e756d657261626c653a206f776e657220696e646578206f7560408201526a74206f6620626f756e647360a81b606082015260800190565b60208082526032908201527f4552433732313a207472616e7366657220746f206e6f6e20455243373231526560408201527131b2b4bb32b91034b6b83632b6b2b73a32b960711b606082015260800190565b60208082526026908201527f4f776e61626c653a206e6577206f776e657220697320746865207a65726f206160408201526564647265737360d01b606082015260800190565b6020808252601c908201527f4552433732313a20746f6b656e20616c7265616479206d696e74656400000000604082015260600190565b6020808252601c908201527f6d6178204e465420706572206164647265737320657863656564656400000000604082015260600190565b60208082526024908201527f4552433732313a207472616e7366657220746f20746865207a65726f206164646040820152637265737360e01b606082015260800190565b60208082526019908201527f4552433732313a20617070726f766520746f2063616c6c657200000000000000604082015260600190565b6020808252602c908201527f4552433732313a206f70657261746f7220717565727920666f72206e6f6e657860408201526b34b9ba32b73a103a37b5b2b760a11b606082015260800190565b60208082526038908201527f4552433732313a20617070726f76652063616c6c6572206973206e6f74206f7760408201527f6e6572206e6f7220617070726f76656420666f7220616c6c0000000000000000606082015260800190565b6020808252600d908201526c2737ba103a34329037bbb732b960991b604082015260600190565b6020808252602a908201527f4552433732313a2062616c616e636520717565727920666f7220746865207a65604082015269726f206164647265737360b01b606082015260800190565b60208082526029908201527f4552433732313a206f776e657220717565727920666f72206e6f6e657869737460408201526832b73a103a37b5b2b760b91b606082015260800190565b6020808252601690820152751b585e08139195081b1a5b5a5d08195e18d95959195960521b604082015260600190565b60208082526024908201527f6d6178206d696e7420616d6f756e74207065722073657373696f6e20657863656040820152631959195960e21b606082015260800190565b6020808252818101527f4552433732313a206d696e7420746f20746865207a65726f2061646472657373604082015260600190565b6020808252602c908201527f4552433732313a20617070726f76656420717565727920666f72206e6f6e657860408201526b34b9ba32b73a103a37b5b2b760a11b606082015260800190565b6020808252818101527f4f776e61626c653a2063616c6c6572206973206e6f7420746865206f776e6572604082015260600190565b6020808252601690820152751d1a194818dbdb9d1c9858dd081a5cc81c185d5cd95960521b604082015260600190565b60208082526029908201527f4552433732313a207472616e73666572206f6620746f6b656e2074686174206960408201526839903737ba1037bbb760b91b606082015260800190565b6020808252602f908201527f4552433732314d657461646174613a2055524920717565727920666f72206e6f60408201526e3732bc34b9ba32b73a103a37b5b2b760891b606082015260800190565b60208082526021908201527f4552433732313a20617070726f76616c20746f2063757272656e74206f776e656040820152603960f91b606082015260800190565b602080825260129082015271696e73756666696369656e742066756e647360701b604082015260600190565b60208082526031908201527f4552433732313a207472616e736665722063616c6c6572206973206e6f74206f6040820152701ddb995c881b9bdc88185c1c1c9bdd9959607a1b606082015260800190565b6020808252602c908201527f455243373231456e756d657261626c653a20676c6f62616c20696e646578206f60408201526b7574206f6620626f756e647360a01b606082015260800190565b60208082526017908201527f75736572206973206e6f742077686974656c6973746564000000000000000000604082015260600190565b6020808252601b908201527f6e65656420746f206d696e74206174206c656173742031204e46540000000000604082015260600190565b90815260200190565b60009081526020902090565b60008219821115612bd657612bd6612cbb565b500190565b600082612bea57612bea612cd1565b500490565b6000816000190483118215151615612c0957612c09612cbb565b500290565b600082821015612c2057612c20612cbb565b500390565b60005b83811015612c40578181015183820152602001612c28565b838111156113975750506000910152565b600281046001821680612c6557607f821691505b60208210811415612c8657634e487b7160e01b600052602260045260246000fd5b50919050565b6000600019821415612ca057612ca0612cbb565b5060010190565b600082612cb657612cb6612cd1565b500690565b634e487b7160e01b600052601160045260246000fd5b634e487b7160e01b600052601260045260246000fd5b634e487b7160e01b600052604160045260246000fd5b6001600160e01b031981168114610b9d57600080fdfea264697066735822122047ad2d8c0feb8a1d91c33d3ab47e3fb667a496f850da3d074e9eba8bce31c83164736f6c63430008000033",
  "immutableReferences": {},
  "source": "// SPDX-License-Identifier: GPL-3.0\n\npragma solidity ^0.8.0;\n\nimport '@openzeppelin/contracts/token/ERC721/extensions/ERC721Enumerable.sol';\nimport '@openzeppelin/contracts/access/Ownable.sol';\n\ncontract NFT is ERC721Enumerable, Ownable {\n  using Strings for uint256;\n\n  string public baseURI;\n  string public baseUriSecondary;\n  string public baseExtension = '.json';\n  uint256 public cost = 1 ether;\n  uint256 public maxSupply = 1000;\n  uint256 public maxMintAmount = 20;\n  uint256 public nftPerAddressLimit = 3;\n  bool public paused = false;\n  bool public onlyWhitelisted = false;\n  address[] public whitelistedAddresses;\n  mapping(address => uint256) public addressMintedBalance;\n  mapping(uint256 => Token) private tokenToOwner;\n\n  constructor(\n    string memory _name,\n    string memory _symbol,\n    string memory _initBaseURI,\n    string memory _initbaseUriSecondary\n  ) ERC721(_name, _symbol) {\n    setBaseURI(_initBaseURI);\n    setBaseUriSecondary(_initbaseUriSecondary);\n  }\n\n  struct Token {\n    address owner;\n    uint256 itemId;\n    bool changeUri;\n  }\n\n  // internal\n  function _baseURI() internal view virtual override returns (string memory) {\n    return baseURI;\n  }\n\n  function _baseUriSecondary() internal view returns (string memory) {\n    return baseUriSecondary;\n  }\n\n  // public\n  function mint(uint256 _mintAmount) public payable {\n    require(!paused, 'the contract is paused');\n    uint256 supply = totalSupply();\n    require(_mintAmount > 0, 'need to mint at least 1 NFT');\n    require(\n      _mintAmount <= maxMintAmount,\n      'max mint amount per session exceeded'\n    );\n    require(supply + _mintAmount <= maxSupply, 'max NFT limit exceeded');\n\n    if (msg.sender != owner()) {\n      if (onlyWhitelisted == true) {\n        require(isWhitelisted(msg.sender), 'user is not whitelisted');\n        uint256 ownerMintedCount = addressMintedBalance[msg.sender];\n        require(\n          ownerMintedCount + _mintAmount <= nftPerAddressLimit,\n          'max NFT per address exceeded'\n        );\n      }\n      require(msg.value >= cost * _mintAmount, 'insufficient funds');\n    }\n\n    for (uint256 i = 1; i <= _mintAmount; i++) {\n      addressMintedBalance[msg.sender]++;\n      _safeMint(msg.sender, supply + i);\n    }\n\n    tokenToOwner[totalSupply()] = Token(msg.sender, totalSupply(), false);\n  }\n\n  function isWhitelisted(address _user) public view returns (bool) {\n    for (uint256 i = 0; i < whitelistedAddresses.length; i++) {\n      if (whitelistedAddresses[i] == _user) {\n        return true;\n      }\n    }\n    return false;\n  }\n\n  function walletOfOwner(address _owner)\n    public\n    view\n    returns (uint256[] memory)\n  {\n    uint256 ownerTokenCount = balanceOf(_owner);\n    uint256[] memory tokenIds = new uint256[](ownerTokenCount);\n    for (uint256 i; i < ownerTokenCount; i++) {\n      tokenIds[i] = tokenOfOwnerByIndex(_owner, i);\n    }\n    return tokenIds;\n  }\n\n  function tokenURI(uint256 tokenId)\n    public\n    view\n    virtual\n    override\n    returns (string memory)\n  {\n    require(\n      _exists(tokenId),\n      'ERC721Metadata: URI query for nonexistent token'\n    );\n\n    bool changeUri = tokenToOwner[tokenId].changeUri;\n    uint256 itemId = tokenToOwner[tokenId].itemId;\n\n    if (tokenId == itemId && changeUri) {\n      string memory currentbaseUriSecondary = _baseUriSecondary();\n      return\n        bytes(currentbaseUriSecondary).length > 0\n          ? string(\n            abi.encodePacked(\n              currentbaseUriSecondary,\n              tokenId.toString(),\n              baseExtension\n            )\n          )\n          : '';\n    } else {\n      string memory currentBaseURI = _baseURI();\n      return\n        bytes(currentBaseURI).length > 0\n          ? string(\n            abi.encodePacked(currentBaseURI, tokenId.toString(), baseExtension)\n          )\n          : '';\n    }\n  }\n\n  function changeBaseURI(uint256 tokenId) public {\n    require(msg.sender == ownerOf(tokenId), 'Not the owner');\n    require(\n      _exists(tokenId),\n      'ERC721Metadata: URI query for nonexistent token'\n    );\n\n    bool changeUri = tokenToOwner[tokenId].changeUri;\n\n    if (changeUri) {\n      tokenToOwner[tokenId].changeUri = false;\n    } else {\n      tokenToOwner[tokenId].changeUri = true;\n    }\n  }\n\n  //only owner\n  function setNftPerAddressLimit(uint256 _limit) public onlyOwner {\n    nftPerAddressLimit = _limit;\n  }\n\n  function setCost(uint256 _newCost) public onlyOwner {\n    cost = _newCost;\n  }\n\n  function setmaxMintAmount(uint256 _newmaxMintAmount) public onlyOwner {\n    maxMintAmount = _newmaxMintAmount;\n  }\n\n  function setBaseURI(string memory _newBaseURI) public onlyOwner {\n    baseURI = _newBaseURI;\n  }\n\n  function setBaseUriSecondary(string memory _newbaseUriSecondary)\n    public\n    onlyOwner\n  {\n    baseUriSecondary = _newbaseUriSecondary;\n  }\n\n  function setBaseExtension(string memory _newBaseExtension) public onlyOwner {\n    baseExtension = _newBaseExtension;\n  }\n\n  function pause(bool _state) public onlyOwner {\n    paused = _state;\n  }\n\n  function setOnlyWhitelisted(bool _state) public onlyOwner {\n    onlyWhitelisted = _state;\n  }\n\n  function whitelistUsers(address[] calldata _users) public onlyOwner {\n    delete whitelistedAddresses;\n    whitelistedAddresses = _users;\n  }\n\n  function withdraw() public payable onlyOwner {\n    (bool os, ) = payable(owner()).call{ value: address(this).balance }('');\n    require(os);\n  }\n}\n",
  "sourcePath": "/Users/jamieanderson/Projects/portfolio/nft-collection/contracts/NFT.sol",
  "compiler": {
    "name": "solc",
    "version": "0.8.0+commit.c7dfd78e.Emscripten.clang"
  },
  "schemaVersion": "3.4.1",
  "updatedAt": "2021-11-26T02:05:02.015Z",
  "networkType": "ethereum",
  "devdoc": {
    "kind": "dev",
    "methods": {
      "approve(address,uint256)": {
        "details": "See {IERC721-approve}."
      },
      "balanceOf(address)": {
        "details": "See {IERC721-balanceOf}."
      },
      "getApproved(uint256)": {
        "details": "See {IERC721-getApproved}."
      },
      "isApprovedForAll(address,address)": {
        "details": "See {IERC721-isApprovedForAll}."
      },
      "name()": {
        "details": "See {IERC721Metadata-name}."
      },
      "owner()": {
        "details": "Returns the address of the current owner."
      },
      "ownerOf(uint256)": {
        "details": "See {IERC721-ownerOf}."
      },
      "renounceOwnership()": {
        "details": "Leaves the contract without owner. It will not be possible to call `onlyOwner` functions anymore. Can only be called by the current owner. NOTE: Renouncing ownership will leave the contract without an owner, thereby removing any functionality that is only available to the owner."
      },
      "safeTransferFrom(address,address,uint256)": {
        "details": "See {IERC721-safeTransferFrom}."
      },
      "safeTransferFrom(address,address,uint256,bytes)": {
        "details": "See {IERC721-safeTransferFrom}."
      },
      "setApprovalForAll(address,bool)": {
        "details": "See {IERC721-setApprovalForAll}."
      },
      "supportsInterface(bytes4)": {
        "details": "See {IERC165-supportsInterface}."
      },
      "symbol()": {
        "details": "See {IERC721Metadata-symbol}."
      },
      "tokenByIndex(uint256)": {
        "details": "See {IERC721Enumerable-tokenByIndex}."
      },
      "tokenOfOwnerByIndex(address,uint256)": {
        "details": "See {IERC721Enumerable-tokenOfOwnerByIndex}."
      },
      "tokenURI(uint256)": {
        "details": "See {IERC721Metadata-tokenURI}."
      },
      "totalSupply()": {
        "details": "See {IERC721Enumerable-totalSupply}."
      },
      "transferFrom(address,address,uint256)": {
        "details": "See {IERC721-transferFrom}."
      },
      "transferOwnership(address)": {
        "details": "Transfers ownership of the contract to a new account (`newOwner`). Can only be called by the current owner."
      }
    },
    "version": 1
  },
  "userdoc": {
    "kind": "user",
    "methods": {},
    "version": 1
  }
}